:020000040000FA
:020000000528D1
:06000A00831686011815A3
:100010004030990018129816831218169817860106
:100020008C1E10281A08A000413C03193C28200807
:10003000453C03193E282008493C03194028200864
:100040004F3C031942282008553C03194428200836
:10005000613C031946282008653C031948282008FC
:10006000693C03194A2820084F3C03194C282008F2
:10007000753C03194E2810287730502879305028C5
:10008000303050283F3050283E3050285F305028C4
:100090007B305028103050285C3050281C305028BD
:0400A000860010289E
:00000001FF
