:020000040000FA
:020000000528D1
:06000A00831686011815A3
:100010004030990018129816831218169817860106
:100020008030A6000130A7008C1E18281A08A500F1
:1000300030302502031930283130250203193228C7
:1000400032302502031935283330250203193F28A1
:100050003430250203194928353025020319602858
:1000600086011428FF308600142803102608860015
:100070006520A60C031C14288030A6001428031049
:10008000260886006520A60D031C14280130A60052
:10009000142803102608860065202708031D582809
:1000A000A60D031C14288030A6000130A7001428D8
:1000B000A60C031C14280130A6000030A700142849
:1000C000FF3086006520860165201530A100603074
:1000D000A2005030A300A30B6B28A20B6928A10B30
:0400E0006728080085
:00000001FF
