:020000040000FA
:020000000528D1
:06000A00850183169F0131
:100010008601181540309900181298168312181688
:100020009817860141309F003030A8009F111F12A1
:100030004E204E201F151F191B281E08A5009F15B6
:100040004E204E201F151F1923281E08A6009F11A1
:100050001F164E204E201F151F192C281E08A70002
:1000600026082502031C3A2827082502031C4228DB
:100070000130452827082602031C42283130A800F9
:10008000033045283230A800073086002808990040
:100090008316981C492883124E2014281030A10082
:1000A000D000A2006030A300A30B5428A20B52285A
:0600B000A10B502808001E
:00000001FF
